:1000000015EF00F0EA6A130EE96EEF500DE0060EF0
:10001000016E006A002EFED7012EFBD77B0E006E0C
:10002000002EFED7EF2EF3D71200F86AD09E046A96
:10003000056AC150C00B0F09C16E070EB46E3F0EAA
:10004000066E060E076E5B0E086E4F0E096E660E8C
:100050000A6E6D0E0B6E7D0E0C6E070E0D6E7F0E12
:100060000E6E6F0E0F6EF19E956A8C6AFF0E936E88
:10007000000E956E010E136EC5DF938081B04FD0D8
:10008000010E106E10502F0847E3010E116E115033
:10009000FA083AE3938081B003D0106A056A046AD3
:1000A000010E126E125002082DE31250010A03E0F5
:1000B000030A14E025D0036A0450060FE96E000E0F
:1000C0000320EA6EEFCF13F0956A13C08CFF926A9B
:1000D000100E896E020E136E95DF12D0036A055062
:1000E000060FE96E000E0320EA6EEFCF13F0956A5B
:1000F00013C08CFF926A200E896E020E136E82DF8F
:10010000122AD0D7112AC3D7052A05500A0802E1BE
:10011000056A042A102AB6D7956A8C6A02D0956AB5
:060120008C6AA8D7030061
:020000040030CA
:0E00000027CC3E1E0087A1000FC00FE00F406E
:00000001FF
;PIC18F4550
;CRC=8F8E  CREATED="25-jun-21 11:22"
