:04000000C1EF00F05C
:08000800046ED8CF05F0E0CF33
:1000100006F00001E9CF0CF0EACF07F0E1CF08F0DD
:10002000E2CF09F0D9CF0AF0DACF0BF0F3CF12F01C
:10003000F4CF13F0FACF14F000C00EF001C00FF0AF
:1000400002C010F003C011F09DA02AEF00F09EB096
:100050004BEF00F00EC000F00FC001F010C002F036
:1000600011C003F00CC0E9FF07C0EAFF078E08C00B
:10007000E1FF09C0E2FF0AC0D9FF0BC0DAFF12C0DE
:10008000F3FF13C0F4FF14C0FAFF045006C0E0FFF2
:1000900005C0D8FF1000CE50CFCF03F0EE0F256E75
:1000A000850ECF20CF6E25C0CEFF3F0E1A6E060EF6
:1000B0001B6E5B0E1C6E4F0E1D6E660E1E6E6D0E61
:1000C0001F6E7D0E206E070E216E7F0E226E6F0E4C
:1000D000236E938081B003D019A001D01990938032
:1000E00081B006D019B004D01980166A176A186A50
:1000F00019A042D018500A0DF35017242F083CE3E2
:100100001650010B2490E8B02480000E24B0010E9C
:10011000000A03E0010A11E01FD0036A17501A0F0A
:10012000E96E000E0320EA6EEFCF25F0956A25C038
:100130008CFF926A200E896E0FD0036A18501A0F36
:10014000E96E000E0320EA6EEFCF25F0956A25C018
:100150008CFF926A100E896E162A1650140802E15E
:10016000172A166A17500A0802E1182A176A185047
:100170000A0801E1186A02D0956A8C6A9E902AEFFB
:1001800000F0F86AD09E078E1990C150C00B0F097D
:10019000C16E070EB46E166A176A186AF19E956AE8
:1001A0008C6AFF0E936E000E956EB50ECD6E850EA9
:1001B000CF6EEE0ECE6EC00EF2129D80FFD7030002
:020000040030CA
:0E00000027CC3E1E0087A1000FC00FE00F406E
:00000001FF
;PIC18F4550
;CRC=B509  CREATED="06-jul-21 22:50"
